{
  "_format": "hh-sol-artifact-1",
  "contractName": "ShieldVote",
  "sourceName": "contracts/ShieldVote.sol",
  "abi": [
    {
      "inputs": [],
      "stateMutability": "nonpayable",
      "type": "constructor"
    },
    {
      "anonymous": false,
      "inputs": [
        {
          "indexed": false,
          "internalType": "uint256",
          "name": "timestamp",
          "type": "uint256"
        },
        {
          "indexed": false,
          "internalType": "uint256",
          "name": "candidateCount",
          "type": "uint256"
        }
      ],
      "name": "ElectionStarted",
      "type": "event"
    },
    {
      "anonymous": false,
      "inputs": [
        {
          "indexed": true,
          "internalType": "bytes32",
          "name": "commitmentHash",
          "type": "bytes32"
        },
        {
          "indexed": false,
          "internalType": "uint256",
          "name": "candidateId",
          "type": "uint256"
        },
        {
          "indexed": false,
          "internalType": "bytes32",
          "name": "voteHash",
          "type": "bytes32"
        },
        {
          "indexed": false,
          "internalType": "uint256",
          "name": "timestamp",
          "type": "uint256"
        }
      ],
      "name": "VoteCast",
      "type": "event"
    },
    {
      "inputs": [
        {
          "internalType": "uint256",
          "name": "",
          "type": "uint256"
        }
      ],
      "name": "candidateExists",
      "outputs": [
        {
          "internalType": "bool",
          "name": "",
          "type": "bool"
        }
      ],
      "stateMutability": "view",
      "type": "function"
    },
    {
      "inputs": [
        {
          "internalType": "uint256",
          "name": "",
          "type": "uint256"
        }
      ],
      "name": "candidateIds",
      "outputs": [
        {
          "internalType": "uint256",
          "name": "",
          "type": "uint256"
        }
      ],
      "stateMutability": "view",
      "type": "function"
    },
    {
      "inputs": [
        {
          "internalType": "uint256",
          "name": "",
          "type": "uint256"
        }
      ],
      "name": "candidateNames",
      "outputs": [
        {
          "internalType": "string",
          "name": "",
          "type": "string"
        }
      ],
      "stateMutability": "view",
      "type": "function"
    },
    {
      "inputs": [
        {
          "internalType": "bytes32",
          "name": "commitmentHash",
          "type": "bytes32"
        },
        {
          "internalType": "uint256",
          "name": "candidateId",
          "type": "uint256"
        }
      ],
      "name": "castVote",
      "outputs": [],
      "stateMutability": "nonpayable",
      "type": "function"
    },
    {
      "inputs": [],
      "name": "electionActive",
      "outputs": [
        {
          "internalType": "bool",
          "name": "",
          "type": "bool"
        }
      ],
      "stateMutability": "view",
      "type": "function"
    },
    {
      "inputs": [
        {
          "internalType": "uint256",
          "name": "id",
          "type": "uint256"
        }
      ],
      "name": "getCandidate",
      "outputs": [
        {
          "internalType": "string",
          "name": "",
          "type": "string"
        }
      ],
      "stateMutability": "view",
      "type": "function"
    },
    {
      "inputs": [],
      "name": "getCandidateCount",
      "outputs": [
        {
          "internalType": "uint256",
          "name": "",
          "type": "uint256"
        }
      ],
      "stateMutability": "view",
      "type": "function"
    },
    {
      "inputs": [],
      "name": "getResults",
      "outputs": [
        {
          "internalType": "uint256[]",
          "name": "ids",
          "type": "uint256[]"
        },
        {
          "internalType": "string[]",
          "name": "names",
          "type": "string[]"
        },
        {
          "internalType": "uint256[]",
          "name": "counts",
          "type": "uint256[]"
        }
      ],
      "stateMutability": "view",
      "type": "function"
    },
    {
      "inputs": [
        {
          "internalType": "bytes32",
          "name": "",
          "type": "bytes32"
        }
      ],
      "name": "hasVoted",
      "outputs": [
        {
          "internalType": "bool",
          "name": "",
          "type": "bool"
        }
      ],
      "stateMutability": "view",
      "type": "function"
    },
    {
      "inputs": [
        {
          "internalType": "bytes32",
          "name": "",
          "type": "bytes32"
        }
      ],
      "name": "lastVoteHash",
      "outputs": [
        {
          "internalType": "bytes32",
          "name": "",
          "type": "bytes32"
        }
      ],
      "stateMutability": "view",
      "type": "function"
    },
    {
      "inputs": [],
      "name": "owner",
      "outputs": [
        {
          "internalType": "address",
          "name": "",
          "type": "address"
        }
      ],
      "stateMutability": "view",
      "type": "function"
    },
    {
      "inputs": [
        {
          "internalType": "uint256[]",
          "name": "_ids",
          "type": "uint256[]"
        },
        {
          "internalType": "string[]",
          "name": "_names",
          "type": "string[]"
        }
      ],
      "name": "startElection",
      "outputs": [],
      "stateMutability": "nonpayable",
      "type": "function"
    },
    {
      "inputs": [
        {
          "internalType": "bytes32",
          "name": "commitmentHash",
          "type": "bytes32"
        }
      ],
      "name": "verifyVote",
      "outputs": [
        {
          "internalType": "bool",
          "name": "exists",
          "type": "bool"
        },
        {
          "internalType": "uint256",
          "name": "candidateId",
          "type": "uint256"
        },
        {
          "internalType": "bytes32",
          "name": "voteHash",
          "type": "bytes32"
        },
        {
          "internalType": "uint256",
          "name": "timestamp",
          "type": "uint256"
        },
        {
          "internalType": "uint256",
          "name": "blockNumber",
          "type": "uint256"
        }
      ],
      "stateMutability": "view",
      "type": "function"
    },
    {
      "inputs": [
        {
          "internalType": "bytes32",
          "name": "",
          "type": "bytes32"
        }
      ],
      "name": "voteBlock",
      "outputs": [
        {
          "internalType": "uint256",
          "name": "",
          "type": "uint256"
        }
      ],
      "stateMutability": "view",
      "type": "function"
    },
    {
      "inputs": [
        {
          "internalType": "uint256",
          "name": "",
          "type": "uint256"
        }
      ],
      "name": "voteCounts",
      "outputs": [
        {
          "internalType": "uint256",
          "name": "",
          "type": "uint256"
        }
      ],
      "stateMutability": "view",
      "type": "function"
    },
    {
      "inputs": [
        {
          "internalType": "bytes32",
          "name": "",
          "type": "bytes32"
        }
      ],
      "name": "voteTimestamp",
      "outputs": [
        {
          "internalType": "uint256",
          "name": "",
          "type": "uint256"
        }
      ],
      "stateMutability": "view",
      "type": "function"
    },
    {
      "inputs": [
        {
          "internalType": "bytes32",
          "name": "",
          "type": "bytes32"
        }
      ],
      "name": "votes",
      "outputs": [
        {
          "internalType": "uint256",
          "name": "",
          "type": "uint256"
        }
      ],
      "stateMutability": "view",
      "type": "function"
    }
  ],
  "bytecode": "0x608060405234801561001057600080fd5b50336000806101000a81548173ffffffffffffffffffffffffffffffffffffffff021916908373ffffffffffffffffffffffffffffffffffffffff160217905550611d1a806100606000396000f3fe608060405234801561001057600080fd5b506004361061010b5760003560e01c806375a12d72116100a25780638da5cb5b116100715780638da5cb5b14610308578063c6d8d15f14610326578063d1d25a8b14610342578063e0188ba614610372578063e3bc0174146103a65761010b565b806375a12d721461026e5780637ed628bb1461028a5780638287e42f146102a857806383c2ce30146102d85761010b565b806335b8e820116100de57806335b8e820146101be5780633c3a220d146101ee5780634717f97c1461021e5780634a3b88771461023e5761010b565b806303016130146101105780631b4613cb146101405780632b38cd961461017057806330a56347146101a0575b600080fd5b61012a60048036038101906101259190610ec0565b6103d6565b6040516101379190610efc565b60405180910390f35b61015a60048036038101906101559190610f4d565b6103fa565b6040516101679190610f95565b60405180910390f35b61018a60048036038101906101859190610f4d565b61041a565b6040516101979190610efc565b60405180910390f35b6101a8610432565b6040516101b59190610efc565b60405180910390f35b6101d860048036038101906101d39190610ec0565b61043f565b6040516101e59190611040565b60405180910390f35b61020860048036038101906102039190610ec0565b6104e4565b6040516102159190610efc565b60405180910390f35b6102266104fc565b6040516102359392919061122c565b60405180910390f35b61025860048036038101906102539190610ec0565b61077d565b6040516102659190610f95565b60405180910390f35b61028860048036038101906102839190611278565b61079d565b005b610292610a04565b60405161029f9190610f95565b60405180910390f35b6102c260048036038101906102bd9190610ec0565b610a17565b6040516102cf9190611040565b60405180910390f35b6102f260048036038101906102ed9190610f4d565b610ab7565b6040516102ff91906112c7565b60405180910390f35b610310610acf565b60405161031d9190611323565b60405180910390f35b610340600480360381019061033b91906113f9565b610af3565b005b61035c60048036038101906103579190610f4d565b610dc4565b6040516103699190610efc565b60405180910390f35b61038c60048036038101906103879190610f4d565b610ddc565b60405161039d95949392919061147a565b60405180910390f35b6103c060048036038101906103bb9190610f4d565b610e68565b6040516103cd9190610efc565b60405180910390f35b600181815481106103e657600080fd5b906000526020600020016000915090505481565b60056020528060005260406000206000915054906101000a900460ff1681565b60046020528060005260406000206000915090505481565b6000600180549050905090565b606060026000838152602001908152602001600020805461045f906114fc565b80601f016020809104026020016040519081016040528092919081815260200182805461048b906114fc565b80156104d85780601f106104ad576101008083540402835291602001916104d8565b820191906000526020600020905b8154815290600101906020018083116104bb57829003601f168201915b50505050509050919050565b60066020528060005260406000206000915090505481565b6060806060600060018054905090508067ffffffffffffffff8111156105255761052461152d565b5b6040519080825280602002602001820160405280156105535781602001602082028036833780820191505090505b5093508067ffffffffffffffff8111156105705761056f61152d565b5b6040519080825280602002602001820160405280156105a357816020015b606081526020019060019003908161058e5790505b5092508067ffffffffffffffff8111156105c0576105bf61152d565b5b6040519080825280602002602001820160405280156105ee5781602001602082028036833780820191505090505b50915060005b8181101561077657600181815481106106105761060f61155c565b5b906000526020600020015485828151811061062e5761062d61155c565b5b60200260200101818152505060026000600183815481106106525761065161155c565b5b906000526020600020015481526020019081526020016000208054610676906114fc565b80601f01602080910402602001604051908101604052809291908181526020018280546106a2906114fc565b80156106ef5780601f106106c4576101008083540402835291602001916106ef565b820191906000526020600020905b8154815290600101906020018083116106d257829003601f168201915b50505050508482815181106107075761070661155c565b5b6020026020010181905250600660006001838154811061072a5761072961155c565b5b90600052602060002001548152602001908152602001600020548382815181106107575761075661155c565b5b602002602001018181525050808061076e906115ba565b9150506105f4565b5050909192565b60036020528060005260406000206000915054906101000a900460ff1681565b600060149054906101000a900460ff166107ec576040517f08c379a00000000000000000000000000000000000000000000000000000000081526004016107e39061164e565b60405180910390fd5b6003600082815260200190815260200160002060009054906101000a900460ff16806108185750600081145b610857576040517f08c379a000000000000000000000000000000000000000000000000000000000815260040161084e906116ba565b60405180910390fd5b6005600083815260200190815260200160002060009054906101000a900460ff16156108dd576000600460008481526020019081526020016000205490506000600660008381526020019081526020016000205411156108db576006600082815260200190815260200160002060008154809291906108d5906116da565b91905055505b505b80600460008481526020019081526020016000208190555060016005600084815260200190815260200160002060006101000a81548160ff021916908315150217905550426008600084815260200190815260200160002081905550436009600084815260200190815260200160002081905550600660008281526020019081526020016000206000815480929190610975906115ba565b9190505550600082824233604051602001610993949392919061178d565b604051602081830303815290604052805190602001209050806007600085815260200190815260200160002081905550827feacba7fe5fae0507236169527b2548aa9b13a43101d21fe90a988b23b5796df08383426040516109f7939291906117db565b60405180910390a2505050565b600060149054906101000a900460ff1681565b60026020528060005260406000206000915090508054610a36906114fc565b80601f0160208091040260200160405190810160405280929190818152602001828054610a62906114fc565b8015610aaf5780601f10610a8457610100808354040283529160200191610aaf565b820191906000526020600020905b815481529060010190602001808311610a9257829003601f168201915b505050505081565b60076020528060005260406000206000915090505481565b60008054906101000a900473ffffffffffffffffffffffffffffffffffffffff1681565b60008054906101000a900473ffffffffffffffffffffffffffffffffffffffff1673ffffffffffffffffffffffffffffffffffffffff163373ffffffffffffffffffffffffffffffffffffffff1614610b81576040517f08c379a0000000000000000000000000000000000000000000000000000000008152600401610b789061185e565b60405180910390fd5b600060149054906101000a900460ff1615610bd1576040517f08c379a0000000000000000000000000000000000000000000000000000000008152600401610bc8906118ca565b60405180910390fd5b818190508484905014610c19576040517f08c379a0000000000000000000000000000000000000000000000000000000008152600401610c1090611936565b60405180910390fd5b60008484905011610c5f576040517f08c379a0000000000000000000000000000000000000000000000000000000008152600401610c56906119a2565b60405180910390fd5b60005b84849050811015610d66576001858583818110610c8257610c8161155c565b5b905060200201359080600181540180825580915050600190039060005260206000200160009091909190915055828282818110610cc257610cc161155c565b5b9050602002810190610cd491906119d1565b60026000888886818110610ceb57610cea61155c565b5b9050602002013581526020019081526020016000209182610d0d929190611beb565b50600160036000878785818110610d2757610d2661155c565b5b90506020020135815260200190815260200160002060006101000a81548160ff0219169083151502179055508080610d5e906115ba565b915050610c62565b506001600060146101000a81548160ff0219169083151502179055507fff6a30dd22f5e8b783044c7d895a6e8592b55c56f139978d44dc39daf596731f4285859050604051610db6929190611cbb565b60405180910390a150505050565b60086020528060005260406000206000915090505481565b60008060008060006005600087815260200190815260200160002060009054906101000a900460ff1694506004600087815260200190815260200160002054935060076000878152602001908152602001600020549250600860008781526020019081526020016000205491506009600087815260200190815260200160002054905091939590929450565b60096020528060005260406000206000915090505481565b600080fd5b600080fd5b6000819050919050565b610e9d81610e8a565b8114610ea857600080fd5b50565b600081359050610eba81610e94565b92915050565b600060208284031215610ed657610ed5610e80565b5b6000610ee484828501610eab565b91505092915050565b610ef681610e8a565b82525050565b6000602082019050610f116000830184610eed565b92915050565b6000819050919050565b610f2a81610f17565b8114610f3557600080fd5b50565b600081359050610f4781610f21565b92915050565b600060208284031215610f6357610f62610e80565b5b6000610f7184828501610f38565b91505092915050565b60008115159050919050565b610f8f81610f7a565b82525050565b6000602082019050610faa6000830184610f86565b92915050565b600081519050919050565b600082825260208201905092915050565b60005b83811015610fea578082015181840152602081019050610fcf565b60008484015250505050565b6000601f19601f8301169050919050565b600061101282610fb0565b61101c8185610fbb565b935061102c818560208601610fcc565b61103581610ff6565b840191505092915050565b6000602082019050818103600083015261105a8184611007565b905092915050565b600081519050919050565b600082825260208201905092915050565b6000819050602082019050919050565b61109781610e8a565b82525050565b60006110a9838361108e565b60208301905092915050565b6000602082019050919050565b60006110cd82611062565b6110d7818561106d565b93506110e28361107e565b8060005b838110156111135781516110fa888261109d565b9750611105836110b5565b9250506001810190506110e6565b5085935050505092915050565b600081519050919050565b600082825260208201905092915050565b6000819050602082019050919050565b600082825260208201905092915050565b600061116882610fb0565b611172818561114c565b9350611182818560208601610fcc565b61118b81610ff6565b840191505092915050565b60006111a2838361115d565b905092915050565b6000602082019050919050565b60006111c282611120565b6111cc818561112b565b9350836020820285016111de8561113c565b8060005b8581101561121a57848403895281516111fb8582611196565b9450611206836111aa565b925060208a019950506001810190506111e2565b50829750879550505050505092915050565b6000606082019050818103600083015261124681866110c2565b9050818103602083015261125a81856111b7565b9050818103604083015261126e81846110c2565b9050949350505050565b6000806040838503121561128f5761128e610e80565b5b600061129d85828601610f38565b92505060206112ae85828601610eab565b9150509250929050565b6112c181610f17565b82525050565b60006020820190506112dc60008301846112b8565b92915050565b600073ffffffffffffffffffffffffffffffffffffffff82169050919050565b600061130d826112e2565b9050919050565b61131d81611302565b82525050565b60006020820190506113386000830184611314565b92915050565b600080fd5b600080fd5b600080fd5b60008083601f8401126113635761136261133e565b5b8235905067ffffffffffffffff8111156113805761137f611343565b5b60208301915083602082028301111561139c5761139b611348565b5b9250929050565b60008083601f8401126113b9576113b861133e565b5b8235905067ffffffffffffffff8111156113d6576113d5611343565b5b6020830191508360208202830111156113f2576113f1611348565b5b9250929050565b6000806000806040858703121561141357611412610e80565b5b600085013567ffffffffffffffff81111561143157611430610e85565b5b61143d8782880161134d565b9450945050602085013567ffffffffffffffff8111156114605761145f610e85565b5b61146c878288016113a3565b925092505092959194509250565b600060a08201905061148f6000830188610f86565b61149c6020830187610eed565b6114a960408301866112b8565b6114b66060830185610eed565b6114c36080830184610eed565b9695505050505050565b7f4e487b7100000000000000000000000000000000000000000000000000000000600052602260045260246000fd5b6000600282049050600182168061151457607f821691505b602082108103611527576115266114cd565b5b50919050565b7f4e487b7100000000000000000000000000000000000000000000000000000000600052604160045260246000fd5b7f4e487b7100000000000000000000000000000000000000000000000000000000600052603260045260246000fd5b7f4e487b7100000000000000000000000000000000000000000000000000000000600052601160045260246000fd5b60006115c582610e8a565b91507fffffffffffffffffffffffffffffffffffffffffffffffffffffffffffffffff82036115f7576115f661158b565b5b600182019050919050565b7f456c656374696f6e206973206e6f742061637469766500000000000000000000600082015250565b6000611638601683610fbb565b915061164382611602565b602082019050919050565b600060208201905081810360008301526116678161162b565b9050919050565b7f496e76616c69642063616e646964617465000000000000000000000000000000600082015250565b60006116a4601183610fbb565b91506116af8261166e565b602082019050919050565b600060208201905081810360008301526116d381611697565b9050919050565b60006116e582610e8a565b9150600082036116f8576116f761158b565b5b600182039050919050565b6000819050919050565b61171e61171982610f17565b611703565b82525050565b6000819050919050565b61173f61173a82610e8a565b611724565b82525050565b60008160601b9050919050565b600061175d82611745565b9050919050565b600061176f82611752565b9050919050565b61178761178282611302565b611764565b82525050565b6000611799828761170d565b6020820191506117a9828661172e565b6020820191506117b9828561172e565b6020820191506117c98284611776565b60148201915081905095945050505050565b60006060820190506117f06000830186610eed565b6117fd60208301856112b8565b61180a6040830184610eed565b949350505050565b7f4f6e6c79206f776e65722063616e2063616c6c20746869730000000000000000600082015250565b6000611848601883610fbb565b915061185382611812565b602082019050919050565b600060208201905081810360008301526118778161183b565b9050919050565b7f456c656374696f6e20616c726561647920616374697665000000000000000000600082015250565b60006118b4601783610fbb565b91506118bf8261187e565b602082019050919050565b600060208201905081810360008301526118e3816118a7565b9050919050565b7f49447320616e64206e616d6573206c656e677468206d69736d61746368000000600082015250565b6000611920601d83610fbb565b915061192b826118ea565b602082019050919050565b6000602082019050818103600083015261194f81611913565b9050919050565b7f4d7573742068617665206174206c65617374206f6e652063616e646964617465600082015250565b600061198c602083610fbb565b915061199782611956565b602082019050919050565b600060208201905081810360008301526119bb8161197f565b9050919050565b600080fd5b600080fd5b600080fd5b600080833560016020038436030381126119ee576119ed6119c2565b5b80840192508235915067ffffffffffffffff821115611a1057611a0f6119c7565b5b602083019250600182023603831315611a2c57611a2b6119cc565b5b509250929050565b600082905092915050565b60008190508160005260206000209050919050565b60006020601f8301049050919050565b600082821b905092915050565b600060088302611aa17fffffffffffffffffffffffffffffffffffffffffffffffffffffffffffffffff82611a64565b611aab8683611a64565b95508019841693508086168417925050509392505050565b6000819050919050565b6000611ae8611ae3611ade84610e8a565b611ac3565b610e8a565b9050919050565b6000819050919050565b611b0283611acd565b611b16611b0e82611aef565b848454611a71565b825550505050565b600090565b611b2b611b1e565b611b36818484611af9565b505050565b5b81811015611b5a57611b4f600082611b23565b600181019050611b3c565b5050565b601f821115611b9f57611b7081611a3f565b611b7984611a54565b81016020851015611b88578190505b611b9c611b9485611a54565b830182611b3b565b50505b505050565b600082821c905092915050565b6000611bc260001984600802611ba4565b1980831691505092915050565b6000611bdb8383611bb1565b9150826002028217905092915050565b611bf58383611a34565b67ffffffffffffffff811115611c0e57611c0d61152d565b5b611c1882546114fc565b611c23828285611b5e565b6000601f831160018114611c525760008415611c40578287013590505b611c4a8582611bcf565b865550611cb2565b601f198416611c6086611a3f565b60005b82811015611c8857848901358255600182019150602085019450602081019050611c63565b86831015611ca55784890135611ca1601f891682611bb1565b8355505b6001600288020188555050505b50505050505050565b6000604082019050611cd06000830185610eed565b611cdd6020830184610eed565b939250505056fea264697066735822122005bc78d625831a815dfaf5878611e77938b49d515a08d05e8b95ab9addae38e764736f6c63430008140033",
  "linkReferences": {},
  "deployedLinkReferences": {}
}